{"contracts/auction.sol":{"auction":{"abi":[{"constant":false,"inputs":[],"name":"register","outputs":[],"payable":true,"stateMutability":"payable","type":"function"},{"constant":true,"inputs":[],"name":"beneficiary","outputs":[{"name":"","type":"address"}],"payable":false,"stateMutability":"view","type":"function"},{"constant":false,"inputs":[{"name":"_itemId","type":"uint256"},{"name":"_count","type":"uint256"}],"name":"bid","outputs":[],"payable":true,"stateMutability":"payable","type":"function"},{"constant":false,"inputs":[],"name":"Auction","outputs":[],"payable":true,"stateMutability":"payable","type":"function"},{"constant":true,"inputs":[{"name":"id","type":"uint256"}],"name":"getPersonDetails","outputs":[{"name":"","type":"uint256"},{"name":"","type":"uint256"},{"name":"","type":"address"}],"payable":false,"stateMutability":"view","type":"function"},{"constant":false,"inputs":[],"name":"revealWinners","outputs":[],"payable":false,"stateMutability":"nonpayable","type":"function"},{"constant":true,"inputs":[{"name":"","type":"uint256"}],"name":"winners","outputs":[{"name":"","type":"address"}],"payable":false,"stateMutability":"view","type":"function"},{"constant":true,"inputs":[{"name":"","type":"uint256"}],"name":"items","outputs":[{"name":"itemId","type":"uint256"}],"payable":false,"stateMutability":"view","type":"function"}],"devdoc":{"methods":{}},"evm":{"assembly":"    /* \"contracts/auction.sol\":28:3223  contract auction {\r... */\n  mstore(0x40, 0x60)\n    /* \"contracts/auction.sol\":837:838  0 */\n  0x0\n    /* \"contracts/auction.sol\":815:838  uint256 bidderCount = 0 */\n  0x17\n  sstore\n    /* \"contracts/auction.sol\":28:3223  contract auction {\r... */\n  jumpi(tag_1, iszero(callvalue))\n  0x0\n  dup1\n  revert\ntag_1:\n  dataSize(sub_0)\n  dup1\n  dataOffset(sub_0)\n  0x0\n  codecopy\n  0x0\n  return\nstop\n\nsub_0: assembly {\n        /* \"contracts/auction.sol\":28:3223  contract auction {\r... */\n      mstore(0x40, 0x60)\n      jumpi(tag_1, iszero(calldatasize))\n      calldataload(0x0)\n      0x100000000000000000000000000000000000000000000000000000000\n      swap1\n      div\n      0xffffffff\n      and\n      dup1\n      0x1aa3a008\n      eq\n      tag_2\n      jumpi\n      dup1\n      0x38af3eed\n      eq\n      tag_3\n      jumpi\n      dup1\n      0x598647f8\n      eq\n      tag_4\n      jumpi\n      dup1\n      0x5fb3e119\n      eq\n      tag_5\n      jumpi\n      dup1\n      0x60981705\n      eq\n      tag_6\n      jumpi\n      dup1\n      0x952587d6\n      eq\n      tag_7\n      jumpi\n      dup1\n      0xa2fb1175\n      eq\n      tag_8\n      jumpi\n      dup1\n      0xbfb231d2\n      eq\n      tag_9\n      jumpi\n    tag_1:\n      0x0\n      dup1\n      revert\n        /* \"contracts/auction.sol\":1190:1488  function register() public payable {\r... */\n    tag_2:\n      tag_10\n      jump(tag_11)\n    tag_10:\n      stop\n        /* \"contracts/auction.sol\":750:776  address public beneficiary */\n    tag_3:\n      jumpi(tag_12, iszero(callvalue))\n      0x0\n      dup1\n      revert\n    tag_12:\n      tag_13\n      jump(tag_14)\n    tag_13:\n      mload(0x40)\n      dup1\n      dup3\n      0xffffffffffffffffffffffffffffffffffffffff\n      and\n      0xffffffffffffffffffffffffffffffffffffffff\n      and\n      dup2\n      mstore\n      0x20\n      add\n      swap2\n      pop\n      pop\n      mload(0x40)\n      dup1\n      swap2\n      sub\n      swap1\n      return\n        /* \"contracts/auction.sol\":1496:2274  function bid(uint256 _itemId, uint256 _count) public payable {\r... */\n    tag_4:\n      tag_15\n      0x4\n      dup1\n      dup1\n      calldataload\n      swap1\n      0x20\n      add\n      swap1\n      swap2\n      swap1\n      dup1\n      calldataload\n      swap1\n      0x20\n      add\n      swap1\n      swap2\n      swap1\n      pop\n      pop\n      jump(tag_16)\n    tag_15:\n      stop\n        /* \"contracts/auction.sol\":876:1182  function Auction() public payable {\r... */\n    tag_5:\n      tag_17\n      jump(tag_18)\n    tag_17:\n      stop\n        /* \"contracts/auction.sol\":2903:3220  function getPersonDetails(uint256 id)\r... */\n    tag_6:\n      jumpi(tag_19, iszero(callvalue))\n      0x0\n      dup1\n      revert\n    tag_19:\n      tag_20\n      0x4\n      dup1\n      dup1\n      calldataload\n      swap1\n      0x20\n      add\n      swap1\n      swap2\n      swap1\n      pop\n      pop\n      jump(tag_21)\n    tag_20:\n      mload(0x40)\n      dup1\n      dup5\n      dup2\n      mstore\n      0x20\n      add\n      dup4\n      dup2\n      mstore\n      0x20\n      add\n      dup3\n      0xffffffffffffffffffffffffffffffffffffffff\n      and\n      0xffffffffffffffffffffffffffffffffffffffff\n      and\n      dup2\n      mstore\n      0x20\n      add\n      swap4\n      pop\n      pop\n      pop\n      pop\n      mload(0x40)\n      dup1\n      swap2\n      sub\n      swap1\n      return\n        /* \"contracts/auction.sol\":2282:2895  function revealWinners() public {\r... */\n    tag_7:\n      jumpi(tag_22, iszero(callvalue))\n      0x0\n      dup1\n      revert\n    tag_22:\n      tag_23\n      jump(tag_24)\n    tag_23:\n      stop\n        /* \"contracts/auction.sol\":687:712  address[3] public winners */\n    tag_8:\n      jumpi(tag_25, iszero(callvalue))\n      0x0\n      dup1\n      revert\n    tag_25:\n      tag_26\n      0x4\n      dup1\n      dup1\n      calldataload\n      swap1\n      0x20\n      add\n      swap1\n      swap2\n      swap1\n      pop\n      pop\n      jump(tag_27)\n    tag_26:\n      mload(0x40)\n      dup1\n      dup3\n      0xffffffffffffffffffffffffffffffffffffffff\n      and\n      0xffffffffffffffffffffffffffffffffffffffff\n      and\n      dup2\n      mstore\n      0x20\n      add\n      swap2\n      pop\n      pop\n      mload(0x40)\n      dup1\n      swap2\n      sub\n      swap1\n      return\n        /* \"contracts/auction.sol\":626:646  Item[3] public items */\n    tag_9:\n      jumpi(tag_28, iszero(callvalue))\n      0x0\n      dup1\n      revert\n    tag_28:\n      tag_29\n      0x4\n      dup1\n      dup1\n      calldataload\n      swap1\n      0x20\n      add\n      swap1\n      swap2\n      swap1\n      pop\n      pop\n      jump(tag_30)\n    tag_29:\n      mload(0x40)\n      dup1\n      dup3\n      dup2\n      mstore\n      0x20\n      add\n      swap2\n      pop\n      pop\n      mload(0x40)\n      dup1\n      swap2\n      sub\n      swap1\n      return\n        /* \"contracts/auction.sol\":1190:1488  function register() public payable {\r... */\n    tag_11:\n        /* \"contracts/auction.sol\":1268:1279  bidderCount */\n      sload(0x17)\n        /* \"contracts/auction.sol\":1236:1243  bidders */\n      0x1\n        /* \"contracts/auction.sol\":1244:1255  bidderCount */\n      sload(0x17)\n        /* \"contracts/auction.sol\":1236:1256  bidders[bidderCount] */\n      0x4\n      dup2\n      lt\n      iszero\n      iszero\n      tag_32\n      jumpi\n      invalid\n    tag_32:\n      0x3\n      mul\n      add\n        /* \"contracts/auction.sol\":1236:1265  bidders[bidderCount].personId */\n      0x1\n      add\n        /* \"contracts/auction.sol\":1236:1279  bidders[bidderCount].personId = bidderCount */\n      dup2\n      swap1\n      sstore\n      pop\n        /* \"contracts/auction.sol\":1318:1328  msg.sender */\n      caller\n        /* \"contracts/auction.sol\":1290:1297  bidders */\n      0x1\n        /* \"contracts/auction.sol\":1298:1309  bidderCount */\n      sload(0x17)\n        /* \"contracts/auction.sol\":1290:1310  bidders[bidderCount] */\n      0x4\n      dup2\n      lt\n      iszero\n      iszero\n      tag_34\n      jumpi\n      invalid\n    tag_34:\n      0x3\n      mul\n      add\n        /* \"contracts/auction.sol\":1290:1315  bidders[bidderCount].addr */\n      0x2\n      add\n      0x0\n        /* \"contracts/auction.sol\":1290:1328  bidders[bidderCount].addr = msg.sender */\n      0x100\n      exp\n      dup2\n      sload\n      dup2\n      0xffffffffffffffffffffffffffffffffffffffff\n      mul\n      not\n      and\n      swap1\n      dup4\n      0xffffffffffffffffffffffffffffffffffffffff\n      and\n      mul\n      or\n      swap1\n      sstore\n      pop\n        /* \"contracts/auction.sol\":1380:1381  5 */\n      0x5\n        /* \"contracts/auction.sol\":1341:1348  bidders */\n      0x1\n        /* \"contracts/auction.sol\":1349:1360  bidderCount */\n      sload(0x17)\n        /* \"contracts/auction.sol\":1341:1361  bidders[bidderCount] */\n      0x4\n      dup2\n      lt\n      iszero\n      iszero\n      tag_36\n      jumpi\n      invalid\n    tag_36:\n      0x3\n      mul\n      add\n        /* \"contracts/auction.sol\":1341:1377  bidders[bidderCount].remainingTokens */\n      0x0\n      add\n        /* \"contracts/auction.sol\":1341:1381  bidders[bidderCount].remainingTokens = 5 */\n      dup2\n      swap1\n      sstore\n      pop\n        /* \"contracts/auction.sol\":1436:1443  bidders */\n      0x1\n        /* \"contracts/auction.sol\":1444:1455  bidderCount */\n      sload(0x17)\n        /* \"contracts/auction.sol\":1436:1456  bidders[bidderCount] */\n      0x4\n      dup2\n      lt\n      iszero\n      iszero\n      tag_38\n      jumpi\n      invalid\n    tag_38:\n      0x3\n      mul\n      add\n        /* \"contracts/auction.sol\":1409:1421  tokenDetails */\n      0x0\n        /* \"contracts/auction.sol\":1409:1433  tokenDetails[msg.sender] */\n      dup1\n        /* \"contracts/auction.sol\":1422:1432  msg.sender */\n      caller\n        /* \"contracts/auction.sol\":1409:1433  tokenDetails[msg.sender] */\n      0xffffffffffffffffffffffffffffffffffffffff\n      and\n      0xffffffffffffffffffffffffffffffffffffffff\n      and\n      dup2\n      mstore\n      0x20\n      add\n      swap1\n      dup2\n      mstore\n      0x20\n      add\n      0x0\n      keccak256\n        /* \"contracts/auction.sol\":1409:1456  tokenDetails[msg.sender] = bidders[bidderCount] */\n      0x0\n      dup3\n      add\n      sload\n      dup2\n      0x0\n      add\n      sstore\n      0x1\n      dup3\n      add\n      sload\n      dup2\n      0x1\n      add\n      sstore\n      0x2\n      dup3\n      add\n      0x0\n      swap1\n      sload\n      swap1\n      0x100\n      exp\n      swap1\n      div\n      0xffffffffffffffffffffffffffffffffffffffff\n      and\n      dup2\n      0x2\n      add\n      exp(0x100, 0x0)\n      dup2\n      sload\n      dup2\n      0xffffffffffffffffffffffffffffffffffffffff\n      mul\n      not\n      and\n      swap1\n      dup4\n      0xffffffffffffffffffffffffffffffffffffffff\n      and\n      mul\n      or\n      swap1\n      sstore\n      pop\n      swap1\n      pop\n      pop\n        /* \"contracts/auction.sol\":1467:1478  bidderCount */\n      0x17\n      0x0\n        /* \"contracts/auction.sol\":1467:1480  bidderCount++ */\n      dup2\n      sload\n      dup1\n      swap3\n      swap2\n      swap1\n      0x1\n      add\n      swap2\n      swap1\n      pop\n      sstore\n      pop\n        /* \"contracts/auction.sol\":1190:1488  function register() public payable {\r... */\n      jump\t// out\n        /* \"contracts/auction.sol\":750:776  address public beneficiary */\n    tag_14:\n      0x16\n      0x0\n      swap1\n      sload\n      swap1\n      0x100\n      exp\n      swap1\n      div\n      0xffffffffffffffffffffffffffffffffffffffff\n      and\n      dup2\n      jump\t// out\n        /* \"contracts/auction.sol\":1496:2274  function bid(uint256 _itemId, uint256 _count) public payable {\r... */\n    tag_16:\n        /* \"contracts/auction.sol\":1831:1846  uint256 balance */\n      0x0\n        /* \"contracts/auction.sol\":2097:2117  Item storage bidItem */\n      dup1\n        /* \"contracts/auction.sol\":2150:2159  uint256 i */\n      0x0\n        /* \"contracts/auction.sol\":1615:1621  _count */\n      dup4\n        /* \"contracts/auction.sol\":1572:1584  tokenDetails */\n      0x0\n        /* \"contracts/auction.sol\":1572:1596  tokenDetails[msg.sender] */\n      dup1\n        /* \"contracts/auction.sol\":1585:1595  msg.sender */\n      caller\n        /* \"contracts/auction.sol\":1572:1596  tokenDetails[msg.sender] */\n      0xffffffffffffffffffffffffffffffffffffffff\n      and\n      0xffffffffffffffffffffffffffffffffffffffff\n      and\n      dup2\n      mstore\n      0x20\n      add\n      swap1\n      dup2\n      mstore\n      0x20\n      add\n      0x0\n      keccak256\n        /* \"contracts/auction.sol\":1572:1612  tokenDetails[msg.sender].remainingTokens */\n      0x0\n      add\n      sload\n        /* \"contracts/auction.sol\":1572:1621  tokenDetails[msg.sender].remainingTokens < _count */\n      lt\n        /* \"contracts/auction.sol\":1568:1658  if (tokenDetails[msg.sender].remainingTokens < _count) {\r... */\n      iszero\n      tag_41\n      jumpi\n        /* \"contracts/auction.sol\":1638:1646  revert() */\n      0x0\n      dup1\n      revert\n        /* \"contracts/auction.sol\":1568:1658  if (tokenDetails[msg.sender].remainingTokens < _count) {\r... */\n    tag_41:\n        /* \"contracts/auction.sol\":1717:1718  1 */\n      0x1\n        /* \"contracts/auction.sol\":1674:1686  tokenDetails */\n      0x0\n        /* \"contracts/auction.sol\":1674:1698  tokenDetails[msg.sender] */\n      dup1\n        /* \"contracts/auction.sol\":1687:1697  msg.sender */\n      caller\n        /* \"contracts/auction.sol\":1674:1698  tokenDetails[msg.sender] */\n      0xffffffffffffffffffffffffffffffffffffffff\n      and\n      0xffffffffffffffffffffffffffffffffffffffff\n      and\n      dup2\n      mstore\n      0x20\n      add\n      swap1\n      dup2\n      mstore\n      0x20\n      add\n      0x0\n      keccak256\n        /* \"contracts/auction.sol\":1674:1714  tokenDetails[msg.sender].remainingTokens */\n      0x0\n      add\n      sload\n        /* \"contracts/auction.sol\":1674:1718  tokenDetails[msg.sender].remainingTokens < 1 */\n      lt\n        /* \"contracts/auction.sol\":1670:1755  if (tokenDetails[msg.sender].remainingTokens < 1) {\r... */\n      iszero\n      tag_42\n      jumpi\n        /* \"contracts/auction.sol\":1735:1743  revert() */\n      0x0\n      dup1\n      revert\n        /* \"contracts/auction.sol\":1670:1755  if (tokenDetails[msg.sender].remainingTokens < 1) {\r... */\n    tag_42:\n        /* \"contracts/auction.sol\":1781:1782  2 */\n      0x2\n        /* \"contracts/auction.sol\":1771:1778  _itemId */\n      dup6\n        /* \"contracts/auction.sol\":1771:1782  _itemId > 2 */\n      gt\n        /* \"contracts/auction.sol\":1767:1819  if (_itemId > 2) {\r... */\n      iszero\n      tag_43\n      jumpi\n        /* \"contracts/auction.sol\":1799:1807  revert() */\n      0x0\n      dup1\n      revert\n        /* \"contracts/auction.sol\":1767:1819  if (_itemId > 2) {\r... */\n    tag_43:\n        /* \"contracts/auction.sol\":1892:1898  _count */\n      dup4\n        /* \"contracts/auction.sol\":1849:1861  tokenDetails */\n      0x0\n        /* \"contracts/auction.sol\":1849:1873  tokenDetails[msg.sender] */\n      dup1\n        /* \"contracts/auction.sol\":1862:1872  msg.sender */\n      caller\n        /* \"contracts/auction.sol\":1849:1873  tokenDetails[msg.sender] */\n      0xffffffffffffffffffffffffffffffffffffffff\n      and\n      0xffffffffffffffffffffffffffffffffffffffff\n      and\n      dup2\n      mstore\n      0x20\n      add\n      swap1\n      dup2\n      mstore\n      0x20\n      add\n      0x0\n      keccak256\n        /* \"contracts/auction.sol\":1849:1889  tokenDetails[msg.sender].remainingTokens */\n      0x0\n      add\n      sload\n        /* \"contracts/auction.sol\":1849:1898  tokenDetails[msg.sender].remainingTokens - _count */\n      sub\n        /* \"contracts/auction.sol\":1831:1898  uint256 balance = tokenDetails[msg.sender].remainingTokens - _count */\n      swap3\n      pop\n        /* \"contracts/auction.sol\":1954:1961  balance */\n      dup3\n        /* \"contracts/auction.sol\":1911:1923  tokenDetails */\n      0x0\n        /* \"contracts/auction.sol\":1911:1935  tokenDetails[msg.sender] */\n      dup1\n        /* \"contracts/auction.sol\":1924:1934  msg.sender */\n      caller\n        /* \"contracts/auction.sol\":1911:1935  tokenDetails[msg.sender] */\n      0xffffffffffffffffffffffffffffffffffffffff\n      and\n      0xffffffffffffffffffffffffffffffffffffffff\n      and\n      dup2\n      mstore\n      0x20\n      add\n      swap1\n      dup2\n      mstore\n      0x20\n      add\n      0x0\n      keccak256\n        /* \"contracts/auction.sol\":1911:1951  tokenDetails[msg.sender].remainingTokens */\n      0x0\n      add\n        /* \"contracts/auction.sol\":1911:1961  tokenDetails[msg.sender].remainingTokens = balance */\n      dup2\n      swap1\n      sstore\n      pop\n        /* \"contracts/auction.sol\":2033:2040  balance */\n      dup3\n        /* \"contracts/auction.sol\":1972:1979  bidders */\n      0x1\n        /* \"contracts/auction.sol\":1980:1992  tokenDetails */\n      0x0\n        /* \"contracts/auction.sol\":1980:2004  tokenDetails[msg.sender] */\n      dup1\n        /* \"contracts/auction.sol\":1993:2003  msg.sender */\n      caller\n        /* \"contracts/auction.sol\":1980:2004  tokenDetails[msg.sender] */\n      0xffffffffffffffffffffffffffffffffffffffff\n      and\n      0xffffffffffffffffffffffffffffffffffffffff\n      and\n      dup2\n      mstore\n      0x20\n      add\n      swap1\n      dup2\n      mstore\n      0x20\n      add\n      0x0\n      keccak256\n        /* \"contracts/auction.sol\":1980:2013  tokenDetails[msg.sender].personId */\n      0x1\n      add\n      sload\n        /* \"contracts/auction.sol\":1972:2014  bidders[tokenDetails[msg.sender].personId] */\n      0x4\n      dup2\n      lt\n      iszero\n      iszero\n      tag_44\n      jumpi\n      invalid\n    tag_44:\n      0x3\n      mul\n      add\n        /* \"contracts/auction.sol\":1972:2030  bidders[tokenDetails[msg.sender].personId].remainingTokens */\n      0x0\n      add\n        /* \"contracts/auction.sol\":1972:2040  bidders[tokenDetails[msg.sender].personId].remainingTokens = balance */\n      dup2\n      swap1\n      sstore\n      pop\n        /* \"contracts/auction.sol\":2120:2125  items */\n      0xd\n        /* \"contracts/auction.sol\":2126:2133  _itemId */\n      dup6\n        /* \"contracts/auction.sol\":2120:2134  items[_itemId] */\n      0x3\n      dup2\n      lt\n      iszero\n      iszero\n      tag_46\n      jumpi\n      invalid\n    tag_46:\n      0x2\n      mul\n      add\n        /* \"contracts/auction.sol\":2097:2134  Item storage bidItem = items[_itemId] */\n      swap2\n      pop\n        /* \"contracts/auction.sol\":2162:2163  0 */\n      0x0\n        /* \"contracts/auction.sol\":2150:2163  uint256 i = 0 */\n      swap1\n      pop\n        /* \"contracts/auction.sol\":2145:2267  for (uint256 i = 0; i < _count; i++) {\r... */\n    tag_48:\n        /* \"contracts/auction.sol\":2169:2175  _count */\n      dup4\n        /* \"contracts/auction.sol\":2165:2166  i */\n      dup2\n        /* \"contracts/auction.sol\":2165:2175  i < _count */\n      lt\n        /* \"contracts/auction.sol\":2145:2267  for (uint256 i = 0; i < _count; i++) {\r... */\n      iszero\n      tag_49\n      jumpi\n        /* \"contracts/auction.sol\":2197:2204  bidItem */\n      dup2\n        /* \"contracts/auction.sol\":2197:2215  bidItem.itemTokens */\n      0x1\n      add\n        /* \"contracts/auction.sol\":2197:2255  bidItem.itemTokens.push(tokenDetails[msg.sender].personId) */\n      dup1\n      sload\n      dup1\n      0x1\n      add\n      dup3\n      dup2\n      tag_51\n      swap2\n      swap1\n      jump\t// in(tag_52)\n    tag_51:\n      swap2\n      0x0\n      mstore\n      keccak256(0x0, 0x20)\n      swap1\n      add\n      0x0\n        /* \"contracts/auction.sol\":2221:2233  tokenDetails */\n      dup1\n        /* \"contracts/auction.sol\":2221:2245  tokenDetails[msg.sender] */\n      0x0\n        /* \"contracts/auction.sol\":2234:2244  msg.sender */\n      caller\n        /* \"contracts/auction.sol\":2221:2245  tokenDetails[msg.sender] */\n      0xffffffffffffffffffffffffffffffffffffffff\n      and\n      0xffffffffffffffffffffffffffffffffffffffff\n      and\n      dup2\n      mstore\n      0x20\n      add\n      swap1\n      dup2\n      mstore\n      0x20\n      add\n      0x0\n      keccak256\n        /* \"contracts/auction.sol\":2221:2254  tokenDetails[msg.sender].personId */\n      0x1\n      add\n      sload\n        /* \"contracts/auction.sol\":2197:2255  bidItem.itemTokens.push(tokenDetails[msg.sender].personId) */\n      swap1\n      swap2\n      swap1\n      swap2\n      pop\n      sstore\n      pop\n        /* \"contracts/auction.sol\":2177:2180  i++ */\n      dup1\n      dup1\n      0x1\n      add\n      swap2\n      pop\n      pop\n        /* \"contracts/auction.sol\":2145:2267  for (uint256 i = 0; i < _count; i++) {\r... */\n      jump(tag_48)\n    tag_49:\n        /* \"contracts/auction.sol\":1496:2274  function bid(uint256 _itemId, uint256 _count) public payable {\r... */\n      pop\n      pop\n      pop\n      pop\n      pop\n      jump\t// out\n        /* \"contracts/auction.sol\":876:1182  function Auction() public payable {\r... */\n    tag_18:\n        /* \"contracts/auction.sol\":958:985  uint256[] memory emptyArray */\n      tag_54\n      jump\t// in(tag_55)\n    tag_54:\n        /* \"contracts/auction.sol\":935:945  msg.sender */\n      caller\n        /* \"contracts/auction.sol\":921:932  beneficiary */\n      0x16\n      0x0\n        /* \"contracts/auction.sol\":921:945  beneficiary = msg.sender */\n      0x100\n      exp\n      dup2\n      sload\n      dup2\n      0xffffffffffffffffffffffffffffffffffffffff\n      mul\n      not\n      and\n      swap1\n      dup4\n      0xffffffffffffffffffffffffffffffffffffffff\n      and\n      mul\n      or\n      swap1\n      sstore\n      pop\n        /* \"contracts/auction.sol\":1007:1048  Item({itemId: 0, itemTokens: emptyArray}) */\n      0x40\n      dup1\n      mload\n      swap1\n      dup2\n      add\n      0x40\n      mstore\n      dup1\n        /* \"contracts/auction.sol\":1021:1022  0 */\n      0x0\n        /* \"contracts/auction.sol\":1007:1048  Item({itemId: 0, itemTokens: emptyArray}) */\n      dup2\n      mstore\n      0x20\n      add\n        /* \"contracts/auction.sol\":1036:1046  emptyArray */\n      dup3\n        /* \"contracts/auction.sol\":1007:1048  Item({itemId: 0, itemTokens: emptyArray}) */\n      dup2\n      mstore\n      pop\n        /* \"contracts/auction.sol\":996:1001  items */\n      0xd\n        /* \"contracts/auction.sol\":1002:1003  0 */\n      0x0\n        /* \"contracts/auction.sol\":996:1004  items[0] */\n      0x3\n      dup2\n      lt\n      iszero\n      iszero\n      tag_57\n      jumpi\n      invalid\n    tag_57:\n      0x2\n      mul\n      add\n        /* \"contracts/auction.sol\":996:1048  items[0] = Item({itemId: 0, itemTokens: emptyArray}) */\n      0x0\n      dup3\n      add\n      mload\n      dup2\n      0x0\n      add\n      sstore\n      0x20\n      dup3\n      add\n      mload\n      dup2\n      0x1\n      add\n      swap1\n      dup1\n      mload\n      swap1\n      0x20\n      add\n      swap1\n      tag_59\n      swap3\n      swap2\n      swap1\n      jump\t// in(tag_60)\n    tag_59:\n      pop\n      swap1\n      pop\n      pop\n        /* \"contracts/auction.sol\":1070:1111  Item({itemId: 1, itemTokens: emptyArray}) */\n      0x40\n      dup1\n      mload\n      swap1\n      dup2\n      add\n      0x40\n      mstore\n      dup1\n        /* \"contracts/auction.sol\":1084:1085  1 */\n      0x1\n        /* \"contracts/auction.sol\":1070:1111  Item({itemId: 1, itemTokens: emptyArray}) */\n      dup2\n      mstore\n      0x20\n      add\n        /* \"contracts/auction.sol\":1099:1109  emptyArray */\n      dup3\n        /* \"contracts/auction.sol\":1070:1111  Item({itemId: 1, itemTokens: emptyArray}) */\n      dup2\n      mstore\n      pop\n        /* \"contracts/auction.sol\":1059:1064  items */\n      0xd\n        /* \"contracts/auction.sol\":1065:1066  1 */\n      0x1\n        /* \"contracts/auction.sol\":1059:1067  items[1] */\n      0x3\n      dup2\n      lt\n      iszero\n      iszero\n      tag_61\n      jumpi\n      invalid\n    tag_61:\n      0x2\n      mul\n      add\n        /* \"contracts/auction.sol\":1059:1111  items[1] = Item({itemId: 1, itemTokens: emptyArray}) */\n      0x0\n      dup3\n      add\n      mload\n      dup2\n      0x0\n      add\n      sstore\n      0x20\n      dup3\n      add\n      mload\n      dup2\n      0x1\n      add\n      swap1\n      dup1\n      mload\n      swap1\n      0x20\n      add\n      swap1\n      tag_63\n      swap3\n      swap2\n      swap1\n      jump\t// in(tag_60)\n    tag_63:\n      pop\n      swap1\n      pop\n      pop\n        /* \"contracts/auction.sol\":1133:1174  Item({itemId: 2, itemTokens: emptyArray}) */\n      0x40\n      dup1\n      mload\n      swap1\n      dup2\n      add\n      0x40\n      mstore\n      dup1\n        /* \"contracts/auction.sol\":1147:1148  2 */\n      0x2\n        /* \"contracts/auction.sol\":1133:1174  Item({itemId: 2, itemTokens: emptyArray}) */\n      dup2\n      mstore\n      0x20\n      add\n        /* \"contracts/auction.sol\":1162:1172  emptyArray */\n      dup3\n        /* \"contracts/auction.sol\":1133:1174  Item({itemId: 2, itemTokens: emptyArray}) */\n      dup2\n      mstore\n      pop\n        /* \"contracts/auction.sol\":1122:1127  items */\n      0xd\n        /* \"contracts/auction.sol\":1128:1129  2 */\n      0x2\n        /* \"contracts/auction.sol\":1122:1130  items[2] */\n      0x3\n      dup2\n      lt\n      iszero\n      iszero\n      tag_64\n      jumpi\n      invalid\n    tag_64:\n      0x2\n      mul\n      add\n        /* \"contracts/auction.sol\":1122:1174  items[2] = Item({itemId: 2, itemTokens: emptyArray}) */\n      0x0\n      dup3\n      add\n      mload\n      dup2\n      0x0\n      add\n      sstore\n      0x20\n      dup3\n      add\n      mload\n      dup2\n      0x1\n      add\n      swap1\n      dup1\n      mload\n      swap1\n      0x20\n      add\n      swap1\n      tag_66\n      swap3\n      swap2\n      swap1\n      jump\t// in(tag_60)\n    tag_66:\n      pop\n      swap1\n      pop\n      pop\n        /* \"contracts/auction.sol\":876:1182  function Auction() public payable {\r... */\n      pop\n      jump\t// out\n        /* \"contracts/auction.sol\":2903:3220  function getPersonDetails(uint256 id)\r... */\n    tag_21:\n        /* \"contracts/auction.sol\":3007:3014  uint256 */\n      0x0\n        /* \"contracts/auction.sol\":3029:3036  uint256 */\n      dup1\n        /* \"contracts/auction.sol\":3051:3058  address */\n      0x0\n        /* \"contracts/auction.sol\":3108:3115  bidders */\n      0x1\n        /* \"contracts/auction.sol\":3116:3118  id */\n      dup5\n        /* \"contracts/auction.sol\":3108:3119  bidders[id] */\n      0x4\n      dup2\n      lt\n      iszero\n      iszero\n      tag_68\n      jumpi\n      invalid\n    tag_68:\n      0x3\n      mul\n      add\n        /* \"contracts/auction.sol\":3108:3135  bidders[id].remainingTokens */\n      0x0\n      add\n      sload\n        /* \"contracts/auction.sol\":3150:3157  bidders */\n      0x1\n        /* \"contracts/auction.sol\":3158:3160  id */\n      dup6\n        /* \"contracts/auction.sol\":3150:3161  bidders[id] */\n      0x4\n      dup2\n      lt\n      iszero\n      iszero\n      tag_70\n      jumpi\n      invalid\n    tag_70:\n      0x3\n      mul\n      add\n        /* \"contracts/auction.sol\":3150:3170  bidders[id].personId */\n      0x1\n      add\n      sload\n        /* \"contracts/auction.sol\":3185:3192  bidders */\n      0x1\n        /* \"contracts/auction.sol\":3193:3195  id */\n      dup7\n        /* \"contracts/auction.sol\":3185:3196  bidders[id] */\n      0x4\n      dup2\n      lt\n      iszero\n      iszero\n      tag_72\n      jumpi\n      invalid\n    tag_72:\n      0x3\n      mul\n      add\n        /* \"contracts/auction.sol\":3185:3201  bidders[id].addr */\n      0x2\n      add\n      0x0\n      swap1\n      sload\n      swap1\n      0x100\n      exp\n      swap1\n      div\n      0xffffffffffffffffffffffffffffffffffffffff\n      and\n        /* \"contracts/auction.sol\":3086:3212  return (\r... */\n      swap3\n      pop\n      swap3\n      pop\n      swap3\n      pop\n        /* \"contracts/auction.sol\":2903:3220  function getPersonDetails(uint256 id)\r... */\n      swap2\n      swap4\n      swap1\n      swap3\n      pop\n      jump\t// out\n        /* \"contracts/auction.sol\":2282:2895  function revealWinners() public {\r... */\n    tag_24:\n        /* \"contracts/auction.sol\":2330:2340  uint256 id */\n      0x0\n        /* \"contracts/auction.sol\":2375:2399  Item storage currentItem */\n      dup1\n        /* \"contracts/auction.sol\":2540:2559  uint256 randomIndex */\n      0x0\n        /* \"contracts/auction.sol\":2750:2766  uint256 winnerId */\n      dup1\n        /* \"contracts/auction.sol\":2343:2344  0 */\n      0x0\n        /* \"contracts/auction.sol\":2330:2344  uint256 id = 0 */\n      swap4\n      pop\n        /* \"contracts/auction.sol\":2325:2888  for (uint256 id = 0; id < 3; id++) {\r... */\n    tag_75:\n        /* \"contracts/auction.sol\":2351:2352  3 */\n      0x3\n        /* \"contracts/auction.sol\":2346:2348  id */\n      dup5\n        /* \"contracts/auction.sol\":2346:2352  id < 3 */\n      lt\n        /* \"contracts/auction.sol\":2325:2888  for (uint256 id = 0; id < 3; id++) {\r... */\n      iszero\n      tag_76\n      jumpi\n        /* \"contracts/auction.sol\":2402:2407  items */\n      0xd\n        /* \"contracts/auction.sol\":2408:2410  id */\n      dup5\n        /* \"contracts/auction.sol\":2402:2411  items[id] */\n      0x3\n      dup2\n      lt\n      iszero\n      iszero\n      tag_78\n      jumpi\n      invalid\n    tag_78:\n      0x2\n      mul\n      add\n        /* \"contracts/auction.sol\":2375:2411  Item storage currentItem = items[id] */\n      swap3\n      pop\n        /* \"contracts/auction.sol\":2463:2464  0 */\n      0x0\n        /* \"contracts/auction.sol\":2430:2441  currentItem */\n      dup4\n        /* \"contracts/auction.sol\":2430:2452  currentItem.itemTokens */\n      0x1\n      add\n        /* \"contracts/auction.sol\":2430:2459  currentItem.itemTokens.length */\n      dup1\n      sload\n      swap1\n      pop\n        /* \"contracts/auction.sol\":2430:2464  currentItem.itemTokens.length != 0 */\n      eq\n      iszero\n        /* \"contracts/auction.sol\":2426:2877  if (currentItem.itemTokens.length != 0) {\r... */\n      iszero\n      tag_80\n      jumpi\n        /* \"contracts/auction.sol\":2653:2664  currentItem */\n      dup3\n        /* \"contracts/auction.sol\":2653:2675  currentItem.itemTokens */\n      0x1\n      add\n        /* \"contracts/auction.sol\":2653:2682  currentItem.itemTokens.length */\n      dup1\n      sload\n      swap1\n      pop\n        /* \"contracts/auction.sol\":2599:2610  currentItem */\n      dup4\n        /* \"contracts/auction.sol\":2599:2621  currentItem.itemTokens */\n      0x1\n      add\n        /* \"contracts/auction.sol\":2599:2628  currentItem.itemTokens.length */\n      dup1\n      sload\n      swap1\n      pop\n        /* \"contracts/auction.sol\":2563:2575  block.number */\n      number\n        /* \"contracts/auction.sol\":2563:2628  block.number /\r... */\n      dup2\n      iszero\n      iszero\n      tag_81\n      jumpi\n      invalid\n    tag_81:\n      div\n        /* \"contracts/auction.sol\":2562:2682  (block.number /\r... */\n      dup2\n      iszero\n      iszero\n      tag_82\n      jumpi\n      invalid\n    tag_82:\n      mod\n        /* \"contracts/auction.sol\":2540:2682  uint256 randomIndex = (block.number /\r... */\n      swap2\n      pop\n        /* \"contracts/auction.sol\":2769:2780  currentItem */\n      dup3\n        /* \"contracts/auction.sol\":2769:2791  currentItem.itemTokens */\n      0x1\n      add\n        /* \"contracts/auction.sol\":2792:2803  randomIndex */\n      dup3\n        /* \"contracts/auction.sol\":2769:2804  currentItem.itemTokens[randomIndex] */\n      dup2\n      sload\n      dup2\n      lt\n      iszero\n      iszero\n      tag_83\n      jumpi\n      invalid\n    tag_83:\n      swap1\n      0x0\n      mstore\n      keccak256(0x0, 0x20)\n      swap1\n      add\n      sload\n        /* \"contracts/auction.sol\":2750:2804  uint256 winnerId = currentItem.itemTokens[randomIndex] */\n      swap1\n      pop\n        /* \"contracts/auction.sol\":2839:2846  bidders */\n      0x1\n        /* \"contracts/auction.sol\":2847:2855  winnerId */\n      dup2\n        /* \"contracts/auction.sol\":2839:2856  bidders[winnerId] */\n      0x4\n      dup2\n      lt\n      iszero\n      iszero\n      tag_85\n      jumpi\n      invalid\n    tag_85:\n      0x3\n      mul\n      add\n        /* \"contracts/auction.sol\":2839:2861  bidders[winnerId].addr */\n      0x2\n      add\n      0x0\n      swap1\n      sload\n      swap1\n      0x100\n      exp\n      swap1\n      div\n      0xffffffffffffffffffffffffffffffffffffffff\n      and\n        /* \"contracts/auction.sol\":2825:2832  winners */\n      0x13\n        /* \"contracts/auction.sol\":2833:2835  id */\n      dup6\n        /* \"contracts/auction.sol\":2825:2836  winners[id] */\n      0x3\n      dup2\n      lt\n      iszero\n      iszero\n      tag_87\n      jumpi\n      invalid\n    tag_87:\n      add\n      0x0\n        /* \"contracts/auction.sol\":2825:2861  winners[id] = bidders[winnerId].addr */\n      0x100\n      exp\n      dup2\n      sload\n      dup2\n      0xffffffffffffffffffffffffffffffffffffffff\n      mul\n      not\n      and\n      swap1\n      dup4\n      0xffffffffffffffffffffffffffffffffffffffff\n      and\n      mul\n      or\n      swap1\n      sstore\n      pop\n        /* \"contracts/auction.sol\":2426:2877  if (currentItem.itemTokens.length != 0) {\r... */\n    tag_80:\n        /* \"contracts/auction.sol\":2354:2358  id++ */\n      dup4\n      dup1\n      0x1\n      add\n      swap5\n      pop\n      pop\n        /* \"contracts/auction.sol\":2325:2888  for (uint256 id = 0; id < 3; id++) {\r... */\n      jump(tag_75)\n    tag_76:\n        /* \"contracts/auction.sol\":2282:2895  function revealWinners() public {\r... */\n      pop\n      pop\n      pop\n      pop\n      jump\t// out\n        /* \"contracts/auction.sol\":687:712  address[3] public winners */\n    tag_27:\n      0x13\n      dup2\n      0x3\n      dup2\n      lt\n      iszero\n      iszero\n      tag_89\n      jumpi\n      invalid\n    tag_89:\n      add\n      0x0\n      swap2\n      pop\n      sload\n      swap1\n      0x100\n      exp\n      swap1\n      div\n      0xffffffffffffffffffffffffffffffffffffffff\n      and\n      dup2\n      jump\t// out\n        /* \"contracts/auction.sol\":626:646  Item[3] public items */\n    tag_30:\n      0xd\n      dup2\n      0x3\n      dup2\n      lt\n      iszero\n      iszero\n      tag_91\n      jumpi\n      invalid\n    tag_91:\n      0x2\n      mul\n      add\n      0x0\n      swap2\n      pop\n      swap1\n      pop\n      dup1\n      0x0\n      add\n      sload\n      swap1\n      pop\n      dup2\n      jump\t// out\n        /* \"contracts/auction.sol\":28:3223  contract auction {\r... */\n    tag_52:\n      dup2\n      sload\n      dup2\n      dup4\n      sstore\n      dup2\n      dup2\n      iszero\n      gt\n      tag_93\n      jumpi\n      dup2\n      dup4\n      0x0\n      mstore\n      keccak256(0x0, 0x20)\n      swap2\n      dup3\n      add\n      swap2\n      add\n      tag_94\n      swap2\n      swap1\n      jump\t// in(tag_95)\n    tag_94:\n    tag_93:\n      pop\n      pop\n      pop\n      jump\t// out\n    tag_55:\n      0x20\n      mload(0x40)\n      swap1\n      dup2\n      add\n      0x40\n      mstore\n      dup1\n      0x0\n      dup2\n      mstore\n      pop\n      swap1\n      jump\t// out\n    tag_60:\n      dup3\n      dup1\n      sload\n      dup3\n      dup3\n      sstore\n      swap1\n      0x0\n      mstore\n      keccak256(0x0, 0x20)\n      swap1\n      dup2\n      add\n      swap3\n      dup3\n      iszero\n      tag_96\n      jumpi\n      swap2\n      0x20\n      mul\n      dup3\n      add\n    tag_97:\n      dup3\n      dup2\n      gt\n      iszero\n      tag_98\n      jumpi\n      dup3\n      mload\n      dup3\n      sstore\n      swap2\n      0x20\n      add\n      swap2\n      swap1\n      0x1\n      add\n      swap1\n      jump(tag_97)\n    tag_98:\n    tag_96:\n      pop\n      swap1\n      pop\n      tag_99\n      swap2\n      swap1\n      jump\t// in(tag_95)\n    tag_99:\n      pop\n      swap1\n      jump\t// out\n    tag_95:\n      tag_100\n      swap2\n      swap1\n    tag_101:\n      dup1\n      dup3\n      gt\n      iszero\n      tag_102\n      jumpi\n      0x0\n      dup2\n      0x0\n      swap1\n      sstore\n      pop\n      0x1\n      add\n      jump(tag_101)\n    tag_102:\n      pop\n      swap1\n      jump\n    tag_100:\n      swap1\n      jump\t// out\n\n    auxdata: 0xa165627a7a72305820779d023c5ce5e0c2949d1cd4fe9afde6d66b44171243a4d5cfde68fdddcd343a0029\n}\n","bytecode":{"linkReferences":{},"object":"60606040526000601755341561001457600080fd5b610a22806100236000396000f3006060604052361561008c576000357c0100000000000000000000000000000000000000000000000000000000900463ffffffff1680631aa3a0081461009157806338af3eed1461009b578063598647f8146100f05780635fb3e11914610111578063609817051461011b578063952587d61461018c578063a2fb1175146101a1578063bfb231d214610204575b600080fd5b61009961023b565b005b34156100a657600080fd5b6100ae6103b4565b604051808273ffffffffffffffffffffffffffffffffffffffff1673ffffffffffffffffffffffffffffffffffffffff16815260200191505060405180910390f35b61010f60048080359060200190919080359060200190919050506103da565b005b610119610614565b005b341561012657600080fd5b61013c600480803590602001909190505061075c565b604051808481526020018381526020018273ffffffffffffffffffffffffffffffffffffffff1673ffffffffffffffffffffffffffffffffffffffff168152602001935050505060405180910390f35b341561019757600080fd5b61019f6107d3565b005b34156101ac57600080fd5b6101c260048080359060200190919050506108ec565b604051808273ffffffffffffffffffffffffffffffffffffffff1673ffffffffffffffffffffffffffffffffffffffff16815260200191505060405180910390f35b341561020f57600080fd5b6102256004808035906020019091905050610921565b6040518082815260200191505060405180910390f35b601754600160175460048110151561024f57fe5b600302016001018190555033600160175460048110151561026c57fe5b6003020160020160006101000a81548173ffffffffffffffffffffffffffffffffffffffff021916908373ffffffffffffffffffffffffffffffffffffffff160217905550600560016017546004811015156102c457fe5b600302016000018190555060016017546004811015156102e057fe5b600302016000803373ffffffffffffffffffffffffffffffffffffffff1673ffffffffffffffffffffffffffffffffffffffff16815260200190815260200160002060008201548160000155600182015481600101556002820160009054906101000a900473ffffffffffffffffffffffffffffffffffffffff168160020160006101000a81548173ffffffffffffffffffffffffffffffffffffffff021916908373ffffffffffffffffffffffffffffffffffffffff160217905550905050601760008154809291906001019190505550565b601660009054906101000a900473ffffffffffffffffffffffffffffffffffffffff1681565b6000806000836000803373ffffffffffffffffffffffffffffffffffffffff1673ffffffffffffffffffffffffffffffffffffffff16815260200190815260200160002060000154101561042d57600080fd5b60016000803373ffffffffffffffffffffffffffffffffffffffff1673ffffffffffffffffffffffffffffffffffffffff16815260200190815260200160002060000154101561047c57600080fd5b600285111561048a57600080fd5b836000803373ffffffffffffffffffffffffffffffffffffffff1673ffffffffffffffffffffffffffffffffffffffff16815260200190815260200160002060000154039250826000803373ffffffffffffffffffffffffffffffffffffffff1673ffffffffffffffffffffffffffffffffffffffff168152602001908152602001600020600001819055508260016000803373ffffffffffffffffffffffffffffffffffffffff1673ffffffffffffffffffffffffffffffffffffffff1681526020019081526020016000206001015460048110151561056757fe5b6003020160000181905550600d8560038110151561058157fe5b600202019150600090505b8381101561060d578160010180548060010182816105aa9190610944565b916000526020600020900160008060003373ffffffffffffffffffffffffffffffffffffffff1673ffffffffffffffffffffffffffffffffffffffff1681526020019081526020016000206001015490919091505550808060010191505061058c565b5050505050565b61061c610970565b33601660006101000a81548173ffffffffffffffffffffffffffffffffffffffff021916908373ffffffffffffffffffffffffffffffffffffffff16021790555060408051908101604052806000815260200182815250600d600060038110151561068357fe5b600202016000820151816000015560208201518160010190805190602001906106ad929190610984565b5090505060408051908101604052806001815260200182815250600d60016003811015156106d757fe5b60020201600082015181600001556020820151816001019080519060200190610701929190610984565b5090505060408051908101604052806002815260200182815250600d600260038110151561072b57fe5b60020201600082015181600001556020820151816001019080519060200190610755929190610984565b5090505050565b600080600060018460048110151561077057fe5b600302016000015460018560048110151561078757fe5b600302016001015460018660048110151561079e57fe5b6003020160020160009054906101000a900473ffffffffffffffffffffffffffffffffffffffff169250925092509193909250565b600080600080600093505b60038410156108e657600d846003811015156107f657fe5b600202019250600083600101805490501415156108d957826001018054905083600101805490504381151561082757fe5b0481151561083157fe5b069150826001018281548110151561084557fe5b906000526020600020900154905060018160048110151561086257fe5b6003020160020160009054906101000a900473ffffffffffffffffffffffffffffffffffffffff1660138560038110151561089957fe5b0160006101000a81548173ffffffffffffffffffffffffffffffffffffffff021916908373ffffffffffffffffffffffffffffffffffffffff1602179055505b83806001019450506107de565b50505050565b6013816003811015156108fb57fe5b016000915054906101000a900473ffffffffffffffffffffffffffffffffffffffff1681565b600d8160038110151561093057fe5b600202016000915090508060000154905081565b81548183558181151161096b5781836000526020600020918201910161096a91906109d1565b5b505050565b602060405190810160405280600081525090565b8280548282559060005260206000209081019282156109c0579160200282015b828111156109bf5782518255916020019190600101906109a4565b5b5090506109cd91906109d1565b5090565b6109f391905b808211156109ef5760008160009055506001016109d7565b5090565b905600a165627a7a72305820779d023c5ce5e0c2949d1cd4fe9afde6d66b44171243a4d5cfde68fdddcd343a0029","opcodes":"PUSH1 0x60 PUSH1 0x40 MSTORE PUSH1 0x0 PUSH1 0x17 SSTORE CALLVALUE ISZERO PUSH2 0x14 JUMPI PUSH1 0x0 DUP1 REVERT JUMPDEST PUSH2 0xA22 DUP1 PUSH2 0x23 PUSH1 0x0 CODECOPY PUSH1 0x0 RETURN STOP PUSH1 0x60 PUSH1 0x40 MSTORE CALLDATASIZE ISZERO PUSH2 0x8C JUMPI PUSH1 0x0 CALLDATALOAD PUSH29 0x100000000000000000000000000000000000000000000000000000000 SWAP1 DIV PUSH4 0xFFFFFFFF AND DUP1 PUSH4 0x1AA3A008 EQ PUSH2 0x91 JUMPI DUP1 PUSH4 0x38AF3EED EQ PUSH2 0x9B JUMPI DUP1 PUSH4 0x598647F8 EQ PUSH2 0xF0 JUMPI DUP1 PUSH4 0x5FB3E119 EQ PUSH2 0x111 JUMPI DUP1 PUSH4 0x60981705 EQ PUSH2 0x11B JUMPI DUP1 PUSH4 0x952587D6 EQ PUSH2 0x18C JUMPI DUP1 PUSH4 0xA2FB1175 EQ PUSH2 0x1A1 JUMPI DUP1 PUSH4 0xBFB231D2 EQ PUSH2 0x204 JUMPI JUMPDEST PUSH1 0x0 DUP1 REVERT JUMPDEST PUSH2 0x99 PUSH2 0x23B JUMP JUMPDEST STOP JUMPDEST CALLVALUE ISZERO PUSH2 0xA6 JUMPI PUSH1 0x0 DUP1 REVERT JUMPDEST PUSH2 0xAE PUSH2 0x3B4 JUMP JUMPDEST PUSH1 0x40 MLOAD DUP1 DUP3 PUSH20 0xFFFFFFFFFFFFFFFFFFFFFFFFFFFFFFFFFFFFFFFF AND PUSH20 0xFFFFFFFFFFFFFFFFFFFFFFFFFFFFFFFFFFFFFFFF AND DUP2 MSTORE PUSH1 0x20 ADD SWAP2 POP POP PUSH1 0x40 MLOAD DUP1 SWAP2 SUB SWAP1 RETURN JUMPDEST PUSH2 0x10F PUSH1 0x4 DUP1 DUP1 CALLDATALOAD SWAP1 PUSH1 0x20 ADD SWAP1 SWAP2 SWAP1 DUP1 CALLDATALOAD SWAP1 PUSH1 0x20 ADD SWAP1 SWAP2 SWAP1 POP POP PUSH2 0x3DA JUMP JUMPDEST STOP JUMPDEST PUSH2 0x119 PUSH2 0x614 JUMP JUMPDEST STOP JUMPDEST CALLVALUE ISZERO PUSH2 0x126 JUMPI PUSH1 0x0 DUP1 REVERT JUMPDEST PUSH2 0x13C PUSH1 0x4 DUP1 DUP1 CALLDATALOAD SWAP1 PUSH1 0x20 ADD SWAP1 SWAP2 SWAP1 POP POP PUSH2 0x75C JUMP JUMPDEST PUSH1 0x40 MLOAD DUP1 DUP5 DUP2 MSTORE PUSH1 0x20 ADD DUP4 DUP2 MSTORE PUSH1 0x20 ADD DUP3 PUSH20 0xFFFFFFFFFFFFFFFFFFFFFFFFFFFFFFFFFFFFFFFF AND PUSH20 0xFFFFFFFFFFFFFFFFFFFFFFFFFFFFFFFFFFFFFFFF AND DUP2 MSTORE PUSH1 0x20 ADD SWAP4 POP POP POP POP PUSH1 0x40 MLOAD DUP1 SWAP2 SUB SWAP1 RETURN JUMPDEST CALLVALUE ISZERO PUSH2 0x197 JUMPI PUSH1 0x0 DUP1 REVERT JUMPDEST PUSH2 0x19F PUSH2 0x7D3 JUMP JUMPDEST STOP JUMPDEST CALLVALUE ISZERO PUSH2 0x1AC JUMPI PUSH1 0x0 DUP1 REVERT JUMPDEST PUSH2 0x1C2 PUSH1 0x4 DUP1 DUP1 CALLDATALOAD SWAP1 PUSH1 0x20 ADD SWAP1 SWAP2 SWAP1 POP POP PUSH2 0x8EC JUMP JUMPDEST PUSH1 0x40 MLOAD DUP1 DUP3 PUSH20 0xFFFFFFFFFFFFFFFFFFFFFFFFFFFFFFFFFFFFFFFF AND PUSH20 0xFFFFFFFFFFFFFFFFFFFFFFFFFFFFFFFFFFFFFFFF AND DUP2 MSTORE PUSH1 0x20 ADD SWAP2 POP POP PUSH1 0x40 MLOAD DUP1 SWAP2 SUB SWAP1 RETURN JUMPDEST CALLVALUE ISZERO PUSH2 0x20F JUMPI PUSH1 0x0 DUP1 REVERT JUMPDEST PUSH2 0x225 PUSH1 0x4 DUP1 DUP1 CALLDATALOAD SWAP1 PUSH1 0x20 ADD SWAP1 SWAP2 SWAP1 POP POP PUSH2 0x921 JUMP JUMPDEST PUSH1 0x40 MLOAD DUP1 DUP3 DUP2 MSTORE PUSH1 0x20 ADD SWAP2 POP POP PUSH1 0x40 MLOAD DUP1 SWAP2 SUB SWAP1 RETURN JUMPDEST PUSH1 0x17 SLOAD PUSH1 0x1 PUSH1 0x17 SLOAD PUSH1 0x4 DUP2 LT ISZERO ISZERO PUSH2 0x24F JUMPI INVALID JUMPDEST PUSH1 0x3 MUL ADD PUSH1 0x1 ADD DUP2 SWAP1 SSTORE POP CALLER PUSH1 0x1 PUSH1 0x17 SLOAD PUSH1 0x4 DUP2 LT ISZERO ISZERO PUSH2 0x26C JUMPI INVALID JUMPDEST PUSH1 0x3 MUL ADD PUSH1 0x2 ADD PUSH1 0x0 PUSH2 0x100 EXP DUP2 SLOAD DUP2 PUSH20 0xFFFFFFFFFFFFFFFFFFFFFFFFFFFFFFFFFFFFFFFF MUL NOT AND SWAP1 DUP4 PUSH20 0xFFFFFFFFFFFFFFFFFFFFFFFFFFFFFFFFFFFFFFFF AND MUL OR SWAP1 SSTORE POP PUSH1 0x5 PUSH1 0x1 PUSH1 0x17 SLOAD PUSH1 0x4 DUP2 LT ISZERO ISZERO PUSH2 0x2C4 JUMPI INVALID JUMPDEST PUSH1 0x3 MUL ADD PUSH1 0x0 ADD DUP2 SWAP1 SSTORE POP PUSH1 0x1 PUSH1 0x17 SLOAD PUSH1 0x4 DUP2 LT ISZERO ISZERO PUSH2 0x2E0 JUMPI INVALID JUMPDEST PUSH1 0x3 MUL ADD PUSH1 0x0 DUP1 CALLER PUSH20 0xFFFFFFFFFFFFFFFFFFFFFFFFFFFFFFFFFFFFFFFF AND PUSH20 0xFFFFFFFFFFFFFFFFFFFFFFFFFFFFFFFFFFFFFFFF AND DUP2 MSTORE PUSH1 0x20 ADD SWAP1 DUP2 MSTORE PUSH1 0x20 ADD PUSH1 0x0 KECCAK256 PUSH1 0x0 DUP3 ADD SLOAD DUP2 PUSH1 0x0 ADD SSTORE PUSH1 0x1 DUP3 ADD SLOAD DUP2 PUSH1 0x1 ADD SSTORE PUSH1 0x2 DUP3 ADD PUSH1 0x0 SWAP1 SLOAD SWAP1 PUSH2 0x100 EXP SWAP1 DIV PUSH20 0xFFFFFFFFFFFFFFFFFFFFFFFFFFFFFFFFFFFFFFFF AND DUP2 PUSH1 0x2 ADD PUSH1 0x0 PUSH2 0x100 EXP DUP2 SLOAD DUP2 PUSH20 0xFFFFFFFFFFFFFFFFFFFFFFFFFFFFFFFFFFFFFFFF MUL NOT AND SWAP1 DUP4 PUSH20 0xFFFFFFFFFFFFFFFFFFFFFFFFFFFFFFFFFFFFFFFF AND MUL OR SWAP1 SSTORE POP SWAP1 POP POP PUSH1 0x17 PUSH1 0x0 DUP2 SLOAD DUP1 SWAP3 SWAP2 SWAP1 PUSH1 0x1 ADD SWAP2 SWAP1 POP SSTORE POP JUMP JUMPDEST PUSH1 0x16 PUSH1 0x0 SWAP1 SLOAD SWAP1 PUSH2 0x100 EXP SWAP1 DIV PUSH20 0xFFFFFFFFFFFFFFFFFFFFFFFFFFFFFFFFFFFFFFFF AND DUP2 JUMP JUMPDEST PUSH1 0x0 DUP1 PUSH1 0x0 DUP4 PUSH1 0x0 DUP1 CALLER PUSH20 0xFFFFFFFFFFFFFFFFFFFFFFFFFFFFFFFFFFFFFFFF AND PUSH20 0xFFFFFFFFFFFFFFFFFFFFFFFFFFFFFFFFFFFFFFFF AND DUP2 MSTORE PUSH1 0x20 ADD SWAP1 DUP2 MSTORE PUSH1 0x20 ADD PUSH1 0x0 KECCAK256 PUSH1 0x0 ADD SLOAD LT ISZERO PUSH2 0x42D JUMPI PUSH1 0x0 DUP1 REVERT JUMPDEST PUSH1 0x1 PUSH1 0x0 DUP1 CALLER PUSH20 0xFFFFFFFFFFFFFFFFFFFFFFFFFFFFFFFFFFFFFFFF AND PUSH20 0xFFFFFFFFFFFFFFFFFFFFFFFFFFFFFFFFFFFFFFFF AND DUP2 MSTORE PUSH1 0x20 ADD SWAP1 DUP2 MSTORE PUSH1 0x20 ADD PUSH1 0x0 KECCAK256 PUSH1 0x0 ADD SLOAD LT ISZERO PUSH2 0x47C JUMPI PUSH1 0x0 DUP1 REVERT JUMPDEST PUSH1 0x2 DUP6 GT ISZERO PUSH2 0x48A JUMPI PUSH1 0x0 DUP1 REVERT JUMPDEST DUP4 PUSH1 0x0 DUP1 CALLER PUSH20 0xFFFFFFFFFFFFFFFFFFFFFFFFFFFFFFFFFFFFFFFF AND PUSH20 0xFFFFFFFFFFFFFFFFFFFFFFFFFFFFFFFFFFFFFFFF AND DUP2 MSTORE PUSH1 0x20 ADD SWAP1 DUP2 MSTORE PUSH1 0x20 ADD PUSH1 0x0 KECCAK256 PUSH1 0x0 ADD SLOAD SUB SWAP3 POP DUP3 PUSH1 0x0 DUP1 CALLER PUSH20 0xFFFFFFFFFFFFFFFFFFFFFFFFFFFFFFFFFFFFFFFF AND PUSH20 0xFFFFFFFFFFFFFFFFFFFFFFFFFFFFFFFFFFFFFFFF AND DUP2 MSTORE PUSH1 0x20 ADD SWAP1 DUP2 MSTORE PUSH1 0x20 ADD PUSH1 0x0 KECCAK256 PUSH1 0x0 ADD DUP2 SWAP1 SSTORE POP DUP3 PUSH1 0x1 PUSH1 0x0 DUP1 CALLER PUSH20 0xFFFFFFFFFFFFFFFFFFFFFFFFFFFFFFFFFFFFFFFF AND PUSH20 0xFFFFFFFFFFFFFFFFFFFFFFFFFFFFFFFFFFFFFFFF AND DUP2 MSTORE PUSH1 0x20 ADD SWAP1 DUP2 MSTORE PUSH1 0x20 ADD PUSH1 0x0 KECCAK256 PUSH1 0x1 ADD SLOAD PUSH1 0x4 DUP2 LT ISZERO ISZERO PUSH2 0x567 JUMPI INVALID JUMPDEST PUSH1 0x3 MUL ADD PUSH1 0x0 ADD DUP2 SWAP1 SSTORE POP PUSH1 0xD DUP6 PUSH1 0x3 DUP2 LT ISZERO ISZERO PUSH2 0x581 JUMPI INVALID JUMPDEST PUSH1 0x2 MUL ADD SWAP2 POP PUSH1 0x0 SWAP1 POP JUMPDEST DUP4 DUP2 LT ISZERO PUSH2 0x60D JUMPI DUP2 PUSH1 0x1 ADD DUP1 SLOAD DUP1 PUSH1 0x1 ADD DUP3 DUP2 PUSH2 0x5AA SWAP2 SWAP1 PUSH2 0x944 JUMP JUMPDEST SWAP2 PUSH1 0x0 MSTORE PUSH1 0x20 PUSH1 0x0 KECCAK256 SWAP1 ADD PUSH1 0x0 DUP1 PUSH1 0x0 CALLER PUSH20 0xFFFFFFFFFFFFFFFFFFFFFFFFFFFFFFFFFFFFFFFF AND PUSH20 0xFFFFFFFFFFFFFFFFFFFFFFFFFFFFFFFFFFFFFFFF AND DUP2 MSTORE PUSH1 0x20 ADD SWAP1 DUP2 MSTORE PUSH1 0x20 ADD PUSH1 0x0 KECCAK256 PUSH1 0x1 ADD SLOAD SWAP1 SWAP2 SWAP1 SWAP2 POP SSTORE POP DUP1 DUP1 PUSH1 0x1 ADD SWAP2 POP POP PUSH2 0x58C JUMP JUMPDEST POP POP POP POP POP JUMP JUMPDEST PUSH2 0x61C PUSH2 0x970 JUMP JUMPDEST CALLER PUSH1 0x16 PUSH1 0x0 PUSH2 0x100 EXP DUP2 SLOAD DUP2 PUSH20 0xFFFFFFFFFFFFFFFFFFFFFFFFFFFFFFFFFFFFFFFF MUL NOT AND SWAP1 DUP4 PUSH20 0xFFFFFFFFFFFFFFFFFFFFFFFFFFFFFFFFFFFFFFFF AND MUL OR SWAP1 SSTORE POP PUSH1 0x40 DUP1 MLOAD SWAP1 DUP2 ADD PUSH1 0x40 MSTORE DUP1 PUSH1 0x0 DUP2 MSTORE PUSH1 0x20 ADD DUP3 DUP2 MSTORE POP PUSH1 0xD PUSH1 0x0 PUSH1 0x3 DUP2 LT ISZERO ISZERO PUSH2 0x683 JUMPI INVALID JUMPDEST PUSH1 0x2 MUL ADD PUSH1 0x0 DUP3 ADD MLOAD DUP2 PUSH1 0x0 ADD SSTORE PUSH1 0x20 DUP3 ADD MLOAD DUP2 PUSH1 0x1 ADD SWAP1 DUP1 MLOAD SWAP1 PUSH1 0x20 ADD SWAP1 PUSH2 0x6AD SWAP3 SWAP2 SWAP1 PUSH2 0x984 JUMP JUMPDEST POP SWAP1 POP POP PUSH1 0x40 DUP1 MLOAD SWAP1 DUP2 ADD PUSH1 0x40 MSTORE DUP1 PUSH1 0x1 DUP2 MSTORE PUSH1 0x20 ADD DUP3 DUP2 MSTORE POP PUSH1 0xD PUSH1 0x1 PUSH1 0x3 DUP2 LT ISZERO ISZERO PUSH2 0x6D7 JUMPI INVALID JUMPDEST PUSH1 0x2 MUL ADD PUSH1 0x0 DUP3 ADD MLOAD DUP2 PUSH1 0x0 ADD SSTORE PUSH1 0x20 DUP3 ADD MLOAD DUP2 PUSH1 0x1 ADD SWAP1 DUP1 MLOAD SWAP1 PUSH1 0x20 ADD SWAP1 PUSH2 0x701 SWAP3 SWAP2 SWAP1 PUSH2 0x984 JUMP JUMPDEST POP SWAP1 POP POP PUSH1 0x40 DUP1 MLOAD SWAP1 DUP2 ADD PUSH1 0x40 MSTORE DUP1 PUSH1 0x2 DUP2 MSTORE PUSH1 0x20 ADD DUP3 DUP2 MSTORE POP PUSH1 0xD PUSH1 0x2 PUSH1 0x3 DUP2 LT ISZERO ISZERO PUSH2 0x72B JUMPI INVALID JUMPDEST PUSH1 0x2 MUL ADD PUSH1 0x0 DUP3 ADD MLOAD DUP2 PUSH1 0x0 ADD SSTORE PUSH1 0x20 DUP3 ADD MLOAD DUP2 PUSH1 0x1 ADD SWAP1 DUP1 MLOAD SWAP1 PUSH1 0x20 ADD SWAP1 PUSH2 0x755 SWAP3 SWAP2 SWAP1 PUSH2 0x984 JUMP JUMPDEST POP SWAP1 POP POP POP JUMP JUMPDEST PUSH1 0x0 DUP1 PUSH1 0x0 PUSH1 0x1 DUP5 PUSH1 0x4 DUP2 LT ISZERO ISZERO PUSH2 0x770 JUMPI INVALID JUMPDEST PUSH1 0x3 MUL ADD PUSH1 0x0 ADD SLOAD PUSH1 0x1 DUP6 PUSH1 0x4 DUP2 LT ISZERO ISZERO PUSH2 0x787 JUMPI INVALID JUMPDEST PUSH1 0x3 MUL ADD PUSH1 0x1 ADD SLOAD PUSH1 0x1 DUP7 PUSH1 0x4 DUP2 LT ISZERO ISZERO PUSH2 0x79E JUMPI INVALID JUMPDEST PUSH1 0x3 MUL ADD PUSH1 0x2 ADD PUSH1 0x0 SWAP1 SLOAD SWAP1 PUSH2 0x100 EXP SWAP1 DIV PUSH20 0xFFFFFFFFFFFFFFFFFFFFFFFFFFFFFFFFFFFFFFFF AND SWAP3 POP SWAP3 POP SWAP3 POP SWAP2 SWAP4 SWAP1 SWAP3 POP JUMP JUMPDEST PUSH1 0x0 DUP1 PUSH1 0x0 DUP1 PUSH1 0x0 SWAP4 POP JUMPDEST PUSH1 0x3 DUP5 LT ISZERO PUSH2 0x8E6 JUMPI PUSH1 0xD DUP5 PUSH1 0x3 DUP2 LT ISZERO ISZERO PUSH2 0x7F6 JUMPI INVALID JUMPDEST PUSH1 0x2 MUL ADD SWAP3 POP PUSH1 0x0 DUP4 PUSH1 0x1 ADD DUP1 SLOAD SWAP1 POP EQ ISZERO ISZERO PUSH2 0x8D9 JUMPI DUP3 PUSH1 0x1 ADD DUP1 SLOAD SWAP1 POP DUP4 PUSH1 0x1 ADD DUP1 SLOAD SWAP1 POP NUMBER DUP2 ISZERO ISZERO PUSH2 0x827 JUMPI INVALID JUMPDEST DIV DUP2 ISZERO ISZERO PUSH2 0x831 JUMPI INVALID JUMPDEST MOD SWAP2 POP DUP3 PUSH1 0x1 ADD DUP3 DUP2 SLOAD DUP2 LT ISZERO ISZERO PUSH2 0x845 JUMPI INVALID JUMPDEST SWAP1 PUSH1 0x0 MSTORE PUSH1 0x20 PUSH1 0x0 KECCAK256 SWAP1 ADD SLOAD SWAP1 POP PUSH1 0x1 DUP2 PUSH1 0x4 DUP2 LT ISZERO ISZERO PUSH2 0x862 JUMPI INVALID JUMPDEST PUSH1 0x3 MUL ADD PUSH1 0x2 ADD PUSH1 0x0 SWAP1 SLOAD SWAP1 PUSH2 0x100 EXP SWAP1 DIV PUSH20 0xFFFFFFFFFFFFFFFFFFFFFFFFFFFFFFFFFFFFFFFF AND PUSH1 0x13 DUP6 PUSH1 0x3 DUP2 LT ISZERO ISZERO PUSH2 0x899 JUMPI INVALID JUMPDEST ADD PUSH1 0x0 PUSH2 0x100 EXP DUP2 SLOAD DUP2 PUSH20 0xFFFFFFFFFFFFFFFFFFFFFFFFFFFFFFFFFFFFFFFF MUL NOT AND SWAP1 DUP4 PUSH20 0xFFFFFFFFFFFFFFFFFFFFFFFFFFFFFFFFFFFFFFFF AND MUL OR SWAP1 SSTORE POP JUMPDEST DUP4 DUP1 PUSH1 0x1 ADD SWAP5 POP POP PUSH2 0x7DE JUMP JUMPDEST POP POP POP POP JUMP JUMPDEST PUSH1 0x13 DUP2 PUSH1 0x3 DUP2 LT ISZERO ISZERO PUSH2 0x8FB JUMPI INVALID JUMPDEST ADD PUSH1 0x0 SWAP2 POP SLOAD SWAP1 PUSH2 0x100 EXP SWAP1 DIV PUSH20 0xFFFFFFFFFFFFFFFFFFFFFFFFFFFFFFFFFFFFFFFF AND DUP2 JUMP JUMPDEST PUSH1 0xD DUP2 PUSH1 0x3 DUP2 LT ISZERO ISZERO PUSH2 0x930 JUMPI INVALID JUMPDEST PUSH1 0x2 MUL ADD PUSH1 0x0 SWAP2 POP SWAP1 POP DUP1 PUSH1 0x0 ADD SLOAD SWAP1 POP DUP2 JUMP JUMPDEST DUP2 SLOAD DUP2 DUP4 SSTORE DUP2 DUP2 ISZERO GT PUSH2 0x96B JUMPI DUP2 DUP4 PUSH1 0x0 MSTORE PUSH1 0x20 PUSH1 0x0 KECCAK256 SWAP2 DUP3 ADD SWAP2 ADD PUSH2 0x96A SWAP2 SWAP1 PUSH2 0x9D1 JUMP JUMPDEST JUMPDEST POP POP POP JUMP JUMPDEST PUSH1 0x20 PUSH1 0x40 MLOAD SWAP1 DUP2 ADD PUSH1 0x40 MSTORE DUP1 PUSH1 0x0 DUP2 MSTORE POP SWAP1 JUMP JUMPDEST DUP3 DUP1 SLOAD DUP3 DUP3 SSTORE SWAP1 PUSH1 0x0 MSTORE PUSH1 0x20 PUSH1 0x0 KECCAK256 SWAP1 DUP2 ADD SWAP3 DUP3 ISZERO PUSH2 0x9C0 JUMPI SWAP2 PUSH1 0x20 MUL DUP3 ADD JUMPDEST DUP3 DUP2 GT ISZERO PUSH2 0x9BF JUMPI DUP3 MLOAD DUP3 SSTORE SWAP2 PUSH1 0x20 ADD SWAP2 SWAP1 PUSH1 0x1 ADD SWAP1 PUSH2 0x9A4 JUMP JUMPDEST JUMPDEST POP SWAP1 POP PUSH2 0x9CD SWAP2 SWAP1 PUSH2 0x9D1 JUMP JUMPDEST POP SWAP1 JUMP JUMPDEST PUSH2 0x9F3 SWAP2 SWAP1 JUMPDEST DUP1 DUP3 GT ISZERO PUSH2 0x9EF JUMPI PUSH1 0x0 DUP2 PUSH1 0x0 SWAP1 SSTORE POP PUSH1 0x1 ADD PUSH2 0x9D7 JUMP JUMPDEST POP SWAP1 JUMP JUMPDEST SWAP1 JUMP STOP LOG1 PUSH6 0x627A7A723058 KECCAK256 PUSH24 0x9D023C5CE5E0C2949D1CD4FE9AFDE6D66B44171243A4D5CF 0xde PUSH9 0xFDDDCD343A00290000 "},"gasEstimates":{"creation":{"codeDepositCost":"518800","executionCost":"5557","totalCost":"524357"},"external":{"Auction()":"infinite","beneficiary()":"453","bid(uint256,uint256)":"infinite","getPersonDetails(uint256)":"1181","items(uint256)":"641","register()":"142880","revealWinners()":"infinite","winners(uint256)":"634"}},"methodIdentifiers":{"Auction()":"5fb3e119","beneficiary()":"38af3eed","bid(uint256,uint256)":"598647f8","getPersonDetails(uint256)":"60981705","items(uint256)":"bfb231d2","register()":"1aa3a008","revealWinners()":"952587d6","winners(uint256)":"a2fb1175"}},"userdoc":{"methods":{}}}}}