{
  "_format": "hh-sol-artifact-1",
  "contractName": "auction",
  "sourceName": "contracts/auction.sol",
  "abi": [
    {
      "constant": false,
      "inputs": [],
      "name": "register",
      "outputs": [],
      "payable": true,
      "stateMutability": "payable",
      "type": "function"
    },
    {
      "constant": true,
      "inputs": [],
      "name": "beneficiary",
      "outputs": [
        {
          "name": "",
          "type": "address"
        }
      ],
      "payable": false,
      "stateMutability": "view",
      "type": "function"
    },
    {
      "constant": false,
      "inputs": [
        {
          "name": "_itemId",
          "type": "uint256"
        },
        {
          "name": "_count",
          "type": "uint256"
        }
      ],
      "name": "bid",
      "outputs": [],
      "payable": true,
      "stateMutability": "payable",
      "type": "function"
    },
    {
      "constant": false,
      "inputs": [],
      "name": "Auction",
      "outputs": [],
      "payable": true,
      "stateMutability": "payable",
      "type": "function"
    },
    {
      "constant": true,
      "inputs": [
        {
          "name": "id",
          "type": "uint256"
        }
      ],
      "name": "getPersonDetails",
      "outputs": [
        {
          "name": "",
          "type": "uint256"
        },
        {
          "name": "",
          "type": "uint256"
        },
        {
          "name": "",
          "type": "address"
        }
      ],
      "payable": false,
      "stateMutability": "view",
      "type": "function"
    },
    {
      "constant": false,
      "inputs": [],
      "name": "revealWinners",
      "outputs": [],
      "payable": false,
      "stateMutability": "nonpayable",
      "type": "function"
    },
    {
      "constant": true,
      "inputs": [
        {
          "name": "",
          "type": "uint256"
        }
      ],
      "name": "winners",
      "outputs": [
        {
          "name": "",
          "type": "address"
        }
      ],
      "payable": false,
      "stateMutability": "view",
      "type": "function"
    },
    {
      "constant": true,
      "inputs": [
        {
          "name": "",
          "type": "uint256"
        }
      ],
      "name": "items",
      "outputs": [
        {
          "name": "itemId",
          "type": "uint256"
        }
      ],
      "payable": false,
      "stateMutability": "view",
      "type": "function"
    }
  ],
  "bytecode": "0x60606040526000601755341561001457600080fd5b610a22806100236000396000f3006060604052361561008c576000357c0100000000000000000000000000000000000000000000000000000000900463ffffffff1680631aa3a0081461009157806338af3eed1461009b578063598647f8146100f05780635fb3e11914610111578063609817051461011b578063952587d61461018c578063a2fb1175146101a1578063bfb231d214610204575b600080fd5b61009961023b565b005b34156100a657600080fd5b6100ae6103b4565b604051808273ffffffffffffffffffffffffffffffffffffffff1673ffffffffffffffffffffffffffffffffffffffff16815260200191505060405180910390f35b61010f60048080359060200190919080359060200190919050506103da565b005b610119610614565b005b341561012657600080fd5b61013c600480803590602001909190505061075c565b604051808481526020018381526020018273ffffffffffffffffffffffffffffffffffffffff1673ffffffffffffffffffffffffffffffffffffffff168152602001935050505060405180910390f35b341561019757600080fd5b61019f6107d3565b005b34156101ac57600080fd5b6101c260048080359060200190919050506108ec565b604051808273ffffffffffffffffffffffffffffffffffffffff1673ffffffffffffffffffffffffffffffffffffffff16815260200191505060405180910390f35b341561020f57600080fd5b6102256004808035906020019091905050610921565b6040518082815260200191505060405180910390f35b601754600160175460048110151561024f57fe5b600302016001018190555033600160175460048110151561026c57fe5b6003020160020160006101000a81548173ffffffffffffffffffffffffffffffffffffffff021916908373ffffffffffffffffffffffffffffffffffffffff160217905550600560016017546004811015156102c457fe5b600302016000018190555060016017546004811015156102e057fe5b600302016000803373ffffffffffffffffffffffffffffffffffffffff1673ffffffffffffffffffffffffffffffffffffffff16815260200190815260200160002060008201548160000155600182015481600101556002820160009054906101000a900473ffffffffffffffffffffffffffffffffffffffff168160020160006101000a81548173ffffffffffffffffffffffffffffffffffffffff021916908373ffffffffffffffffffffffffffffffffffffffff160217905550905050601760008154809291906001019190505550565b601660009054906101000a900473ffffffffffffffffffffffffffffffffffffffff1681565b6000806000836000803373ffffffffffffffffffffffffffffffffffffffff1673ffffffffffffffffffffffffffffffffffffffff16815260200190815260200160002060000154101561042d57600080fd5b60016000803373ffffffffffffffffffffffffffffffffffffffff1673ffffffffffffffffffffffffffffffffffffffff16815260200190815260200160002060000154101561047c57600080fd5b600285111561048a57600080fd5b836000803373ffffffffffffffffffffffffffffffffffffffff1673ffffffffffffffffffffffffffffffffffffffff16815260200190815260200160002060000154039250826000803373ffffffffffffffffffffffffffffffffffffffff1673ffffffffffffffffffffffffffffffffffffffff168152602001908152602001600020600001819055508260016000803373ffffffffffffffffffffffffffffffffffffffff1673ffffffffffffffffffffffffffffffffffffffff1681526020019081526020016000206001015460048110151561056757fe5b6003020160000181905550600d8560038110151561058157fe5b600202019150600090505b8381101561060d578160010180548060010182816105aa9190610944565b916000526020600020900160008060003373ffffffffffffffffffffffffffffffffffffffff1673ffffffffffffffffffffffffffffffffffffffff1681526020019081526020016000206001015490919091505550808060010191505061058c565b5050505050565b61061c610970565b33601660006101000a81548173ffffffffffffffffffffffffffffffffffffffff021916908373ffffffffffffffffffffffffffffffffffffffff16021790555060408051908101604052806000815260200182815250600d600060038110151561068357fe5b600202016000820151816000015560208201518160010190805190602001906106ad929190610984565b5090505060408051908101604052806001815260200182815250600d60016003811015156106d757fe5b60020201600082015181600001556020820151816001019080519060200190610701929190610984565b5090505060408051908101604052806002815260200182815250600d600260038110151561072b57fe5b60020201600082015181600001556020820151816001019080519060200190610755929190610984565b5090505050565b600080600060018460048110151561077057fe5b600302016000015460018560048110151561078757fe5b600302016001015460018660048110151561079e57fe5b6003020160020160009054906101000a900473ffffffffffffffffffffffffffffffffffffffff169250925092509193909250565b600080600080600093505b60038410156108e657600d846003811015156107f657fe5b600202019250600083600101805490501415156108d957826001018054905083600101805490504381151561082757fe5b0481151561083157fe5b069150826001018281548110151561084557fe5b906000526020600020900154905060018160048110151561086257fe5b6003020160020160009054906101000a900473ffffffffffffffffffffffffffffffffffffffff1660138560038110151561089957fe5b0160006101000a81548173ffffffffffffffffffffffffffffffffffffffff021916908373ffffffffffffffffffffffffffffffffffffffff1602179055505b83806001019450506107de565b50505050565b6013816003811015156108fb57fe5b016000915054906101000a900473ffffffffffffffffffffffffffffffffffffffff1681565b600d8160038110151561093057fe5b600202016000915090508060000154905081565b81548183558181151161096b5781836000526020600020918201910161096a91906109d1565b5b505050565b602060405190810160405280600081525090565b8280548282559060005260206000209081019282156109c0579160200282015b828111156109bf5782518255916020019190600101906109a4565b5b5090506109cd91906109d1565b5090565b6109f391905b808211156109ef5760008160009055506001016109d7565b5090565b905600a165627a7a72305820779d023c5ce5e0c2949d1cd4fe9afde6d66b44171243a4d5cfde68fdddcd343a0029",
  "linkReferences": {},
  "deployedLinkReferences": {}
}